:100000000C9434040C94881D0C94151D0C945C0401
:100010000C945C040C945C040C945C040C945C04E0
:100020000C945C040C945C040C945C040C945C04D0
:100030000C945C040C945C040C945C040C945C04C0
:100040000C94B6190C945C040C947F100C9453100F
:100050000C945C040C945C040C945C040C945C04A0
:100060000C945C040C945C04C525C925DB25F7259C
:10007000E925052611262A263F266B266B26084AE7
:10008000D73B3BCE016E84BCBFFDC12F3D6C7431AC
:100090009ABD56833DDA3D00C77F11BED9E4BB4C03
:1000A0003E916BAAAABE000000803F05A84CCDB2CD
:1000B000D44EB93836A9020C50B9918688083CA6AE
:1000C000AAAA2ABE000000803F0664EC1B3C04BCC8
:1000D000163E3BE5B93CC93C37C29E5A3D66049882
:1000E000083EEA69AAAA3E000000803F66666640B4
:1000F0000000803F100CBA000A00001BE8031A52EF
:10010000B80E4085EB51401966BB0012800C1CA054
:10011000141E23736574757020646F6E650A000089
:10012000000000250028002B00100E0F11666F6ED6
:10013000742075706C6F6164696E672000464400BE
:10014000434400327C8900EDD968770000005900F3
:1001500000000000000000D69FDCA81817AA9043FA
:100160007327F6B968EDF4DED409FEE61C1C84DDC5
:10017000E80B992927D6DF8D210F036418EFEE1EB7
:1001800099B7825276941500347C000026149E980C
:100190008F0000006A31168F8C059600E7B73F3656
:1001A00000000000000000AF669ED0385D8A6C2021
:1001B000B95422007CED044C80387486EDCBFA579C
:1001C000CBDC19E2001DDF5506E5CB01C3000000C2
:1001D0000000000000009AB20086DBD0BC54161369
:1001E0001586004E44BD7F6F151590010000B500C7
:1001F00000000000002F000034E5000000000000B7
:1002000000000000470000000000000000000000A7
:1002100000000000000000000000000000000000DE
:1002200000000000000000000000000000000000CE
:10023000000000005A00000000000008CC31AA2C89
:10024000532E0002060A0F141E2D3C53637265657F
:100250006E20300015F90B0001161200020E12007C
:10026000035117BC840F172605D7110007DD1500B1
:1002700034D8150335D3150418C80400063907000F
:10028000081D140009C2150025DB16008BBD170BD5
:100290000A0F1500194216000D25155C11DC0A1114
:1002A00016C00A121282041417730413132E0502C7
:1002B00014DC137F0F8017BD2E5912571BED061D3E
:1002C0009CA90F151DD616000E0A10091EED080078
:1002D000219705002064130022150B8F2494131F0F
:1002E0002B45121F2C2113002DF812002FD91200BC
:1002F000A7601300A85C1300A9581300AA541300A8
:100300001F910400267B14003038110031A2120026
:1003100033651200231E120032CD10009A820700AE
:100320000000000046656E6365204661722100464C
:10033000656E63652048696768210046656E636580
:10034000204C6F772100426174742042206C6F77DB
:100350002100486967682056537065656421002054
:10036000204C6F7720527373692100426174746569
:100370007279204C6F772100204F7665725370653B
:10038000656421002020205374616C6C2100204E94
:100390006F20475053206669782100524646002559
:1003A000303269FF003A253032693A00B0B1B4B555
:1003B000B6B77B7DB8B900253469050025352E31E7
:1003C00066002090910025322E3066002520342EC4
:1003D0003066002520342E3166002520342E32660A
:1003E000008E03840378036B035F03520346033BD1
:1003F000032F032403A125372E3266009125372EC3
:1004000032660025362E31660025372E326600739F
:100410004525352E3166004525342E30666D004564
:1004200025352E3166004225352E316605004825DA
:10043000332E306605005025332E306605005225D8
:10044000332E30660500746872770062726B006844
:100450006F6C640074756E6500666C697000737013
:1004600072740064726966006F666C6F006C616E16
:100470006400716C6F690071686F760071737462EB
:1004800000696E69740067756964006C6F69740057
:1004900072746C006175746F006174756E006372C4
:1004A000757A0066627762006662776100616372E6
:1004B0006F007472616900737461620063697263D2
:1004C00000696E6974006D69737300706F73680002
:1004D000616C7468006D616E750061726D00253429
:1004E0006905070025346905060025352E326600AA
:1004F00025342E3166006F7665726C6F616400661C
:10050000726F7A656E0053747265616D0009040B39
:100510006808020003048F681A02000304147300C1
:10052000020003041D73F0010003041268F80100C7
:10053000FC039076E40100F503A076E001000304DB
:10054000BD61E8010003045777EC01003E046E69C9
:1005500077010036046E697501002E046E6973011F
:1005600000260454696901001F0441686F010017E7
:100570000458696501000F0441736B0100FF20CE30
:10058000CECECE60CECECECE00FF20202024CB7C9F
:1005900040CB240082808180818084808180818022
:1005A00083808180818085808180818020C8C8C8C7
:1005B000C87EC8C8C8C820FF0020202024CBB8B9F6
:1005C000CB24202020FF0020586500253269006DD3
:1005D0005F256400B704AD04D004940486048B0442
:1005E0009004BC04CB046D0468046304CF055E046E
:1005F000590454044F044B044604D504BC04B70406
:10060000B204AD04A804A3049E049904CF05940485
:1006100090048B04CF05CF05860481047C04770405
:100620007204DA04D504D004CB04CF05C604CF0588
:10063000CF05C10425342E326600256900432569A3
:1006400020002E253464001F1C1F1E1F1E1F1F1E8E
:100650001F1E1F2E253032640025346900253369A2
:100660000025332E30660020207820207920207A43
:10067000FF0020B3FF20B3FF20C5FF20B3FF20B34E
:1006800000B2FFB2FFC6FFB2FFB20025392E3566B9
:10069000002531302E3666002530356C640025305B
:1006A000366C64004D697373696E672F4F6C6420FC
:1006B000436F6E6669673A202564206D792037396B
:1006C000004D696E696D4F53442D457874726120F9
:1006D000393138204D61764C696E6B204E6F43681E
:1006E00065636B732076696572667566667A69679D
:1006F0002D65646974696F6E0091068B069E06987D
:100700000625342E3066000302010000000000249C
:100710000027002A00000000080002010000030476
:100720000700000000000000000000000023002679
:100730000029000404040404040404020202020266
:100740000203030303030301020408102040800195
:1007500002040810200102040810204325642535F6
:1007600069FF00696E66006E616E0000407A10F3EA
:100770005A00A0724E18090010A5D4E80000E876CF
:1007800048170000E40B54020000CA9A3B00000026
:10079000E1F505000080969800000040420F00003F
:1007A00000A08601000000102700000000E8030000
:1007B0000000006400000000000A000000000001CA
:1007C00000000000002C76D888DC674F0823DFC1CA
:1007D000DFAE59E1B1B796E5E3E453C63AE6519985
:1007E0007696E8E6C28426EB898C9B62ED407C6FAE
:1007F000FCEFBC9C9F40F2BAA56FA5F490055A2A65
:10080000F75C936B6CF9676DC11BFCE0E40D47FE70
:10081000F520E6B500D0ED902E0300943577050065
:1008200080841E080000204E0A000000C80C3333EC
:1008300033330F986E12831141EF8D2114893BE6FB
:100840005516CFFEE6DB18D1844B381BF77C1D9084
:100850001DA4BBE424203284725E228100C9F124ED
:10086000ECA1E53D2700683311241FBECFEFD8E08F
:10087000DEBFCDBF27E0AAE3B1E001C01D92A133E6
:10088000B207E1F711E0A0E0B1E0E0E0F1E702C07B
:1008900005900D92AA33B107D9F714E0C4E3D4E070
:1008A00004C02197FE010E941438C333D107C9F751
:1008B0000E9488230C947E380C940000CF93DF9321
:1008C00088E80E94481ACDE0D1E088810E947C1A15
:1008D00089810E947C1A8EE8DF91CF910C94481A8E
:1008E00085E20C94481A96FB222720F940910402D5
:1008F00050910502609106027091070281E696E030
:100900000C94961B96FB222720F940912D025091C2
:100910002E0260912F027091300281E696E00C94D5
:10092000961B292F8091D5029091D6028F7399271B
:10093000029710F026FF06C06DE672E08DE297E0A8
:100940000C940C190895CF93813110F08051FCCF95
:10095000811101C080E1880FCEEFC80F80E98C0FB4
:100960000E947C1A81E98C0FCF910C947C1A7F93A2
:100970006F939F938F938DE297E09F938F930E9445
:1009800064210F900F900F900F900F900F9008958B
:100990001F93CF93DF93382F192F20911E022F55CD
:1009A000C0914D02263008F04FC0D0E080E09C2F6F
:1009B00064E670E00E94AB37CB016138710540F00E
:1009C00029E820930D0180589109EEE0F1E012C072
:1009D0002DE820930E016231710550F42091C3027D
:1009E000222331F020E220930D0120930E0109C053
:1009F000EDE0F1E06AE170E00E94AB372DE8261BE4
:100A0000208337FF0E945E0416FF0AC0BE018BECF4
:100A100095E00E94B704DF91CF911F910C94700470
:100A2000609116027091170280911802909119023C
:100A30000E94503689E596E00E94B70481E0DF917C
:100A4000CF911F910C94481A24E6C29FC001112433
:100A50006FEF70E00E94BF37EB01A8CF60912C02CE
:100A600070E08DE596E00E94B7040C947004EF925C
:100A7000FF920F931F93CF93DF938C01D62FC42F38
:100A80006CE370E00E94AB377C018DE596E00E943C
:100A9000B704CC2349F0B70185EA93E00E94B7047C
:100AA000CF776C2F70E011C0DD2331F08091C3024D
:100AB000882311F080E201C08AE30E947C1AC801F9
:100AC0006CE370E00E94AB37BC018FE993E0DF91EB
:100AD000CF911F910F91FF90EF900C94B70440E0DD
:100AE00060E00C943705CF93DF931F92CDB7DEB74C
:100AF0007F936F935F934F939F938F938DE297E0D4
:100B00009F938F9329830E9464210FB6F894DEBFD0
:100B10000FBECDBF2981222331F0822F0F90DF91AC
:100B2000CF910C947C1A0F90DF91CF910895CF92C2
:100B3000DF92EF92FF920F931F93CF93DF938091F9
:100B40003E0190913F01FC013A96D4913296C491B6
:100B50000D96FC0105911491609160017091610105
:100B600080E090E00E94B63320E030E040E251E4C3
:100B70000E94DE356B017C016C2F70E080E090E01C
:100B80000E94B8339B01AC01C701B6010E94173423
:100B90006B017C01B80180E090E00E94B6339B01BC
:100BA000AC01C701B6010E94FB3420E030E048EC04
:100BB00052E40E94DE35AB01BC012D2F8CEB93E09B
:100BC000DF91CF911F910F91FF90EF90DF90CF9029
:100BD0000C94730520E00C94730580E20C94481A81
:100BE0008091A3048F5F8093A3040C946D1A692FE6
:100BF0000C949C1ABC0189E297E00E94331A67E3C7
:100C000071E089E297E00C940C198BE993E00C9465
:100C1000FA0583EA92E00197F1F708950E941D1A00
:100C2000811102C00C94090608950E94AA196093CC
:100C300068047093690480936A0490936B048091B4
:100C4000D5029091D6029093670480936604E7EBF7
:100C5000F2E081E0808382830895CF93DF93EC01FB
:100C6000CB01BA010E94B83320E836E948E15BE4E1
:100C70000E94DE35688379838A839B83DF91CF91DD
:100C80000895CF93DF93EC019A01AB0168817981DC
:100C90008A819B810E94FB34688379838A839B834A
:100CA000DF91CF9108958F929F92AF92BF92CF9292
:100CB000DF92EF92FF920F931F93CF938C014A0123
:100CC0005B01C22FFC01C080D180E280F38020E074
:100CD00030E0A901C701B6010E94B133882311F0A9
:100CE000C23030F4F80180829182A282B3821FC0A8
:100CF000A7019601C501B4010E94FA344B015C01C1
:100D00006C2F70E080E090E00E94B8339B01AC0152
:100D1000C501B4010E94DE359B01AC01C701B601DB
:100D20000E94FB34F8016083718382839383CF91A7
:100D30001F910F91FF90EF90DF90CF90BF90AF90F9
:100D40009F908F900895CF92DF92EF92FF92CF9372
:100D5000DF93EC016A017B019A01AB016881798123
:100D60008A819B810E94B13387FF04C0C882D982E7
:100D7000EA82FB82DF91CF91FF90EF90DF90CF90DE
:100D8000089524E0880F991F2A95E1F78C549F4F0E
:100D900068E671E00E94BF37CB0101960895BC015F
:100DA0008DE297E00C94331ACF93DF93EC010E940D
:100DB000AA1928813981CB01821B930BDF91CF9136
:100DC000089597FF03C088599E4F0895893621E002
:100DD000920714F08856914008950F931F93CF9374
:100DE000DF93C92F80916201909163010E94E10617
:100DF0008C014091F4015091F5016091F6017091E0
:100E0000F70124E685E894E00E945306C6FBDD273F
:100E1000D0F94091F4015091F5016091F601709183
:100E2000F7012D2F81E696E00E94961B0E94F005A7
:100E30002091DD013091DE01C801821B930B0E94DD
:100E4000C1069C2F9072C5FD98E0890F0E94A304F3
:100E500040918504509186046091870470918804C4
:100E60002D2F86EC93E0DF91CF911F910F910C9481
:100E7000961BCF93DF938091810190918201C2965E
:100E800064E670E00E94AB372091DD013091DE0115
:100E9000CB01821B930B0E94E106EC01C45BD109DC
:100EA000D0937504C0937404CE010E94C106885F7C
:100EB0000E94A304BE0187EB93E0DF91CF910C94D5
:100EC000B7042091D5023091D602260F311D309300
:100ED0008D0420938C0480938B048091AF028093C7
:100EE0008A04089520E030E04AE754E40E94DE35A9
:100EF0000895E0913E01F0913F01659175918591D2
:100F000094910895CF92DF92EF92FF920F931F93E7
:100F1000CF93DF938091BD02882309F4F7C0192F86
:100F20001092BD02C0900402D0900502E09006022B
:100F3000F09007020E9479079B01AC01C701B6013E
:100F40000E9417340E945036E0914E02F0914F02F9
:100F50008091C902882349F081E090E02091DF016F
:100F6000223008F080E0EC0102C0C0E0D0E0009147
:100F7000600201110AC02091640230E06217730719
:100F800024F48091C20280FDC2602091630222237A
:100F900029F030E0261737070CF4C46030914D0279
:100FA00020911E0240916502442369F0CF0164E65E
:100FB00070E00E94AB376115710529F0842F90E035
:100FC00068177907E4F040916B024423C9F054E6B6
:100FD000359FC0011124322F27FF02C031E0320FAC
:100FE0003595830F911D37FD9A95622F220F770B50
:100FF0000E94BF37842F90E0681779070CF4C8600F
:1010000080916A0280FD0BC080916C0290E020917B
:101010001402309115022817390708F4C061C090F6
:101020001F02D0902002E0902102F090220220E0E6
:1010300030E0A901C701B6010E94EC3618161CF475
:10104000C701B60103C0C701B60190580E945036CF
:10105000CB016AE070E00E94BF37013049F4809113
:101060006402882329F090E0861797070CF4C06289
:1010700080914B0290914C0220919E02222369F0B4
:1010800064E670E00E94AB376115710531F0822F84
:1010900090E0681779070CF4C06416FF0EC08091C9
:1010A0005E01813011F4C0680DC0823011F4D1604E
:1010B00009C0833011F4D26005C0209719F4109252
:1010C000890424C09091890481E09111890F809353
:1010D0008904809189044FEF480F21E030E002C07D
:1010E000220F331F4A95E2F78B3018F081E021E0A0
:1010F00030E0A9014C235D23452B21F48F5F220FA3
:10110000331FF2CF809389048917C9F2E0918904D3
:10111000EE2389F0F0E0EE0FFF1FE152FC4F8591C6
:101120009491DF91CF911F910F91FF90EF90DF90FD
:10113000CF900C94CF06DF91CF911F910F91FF902C
:10114000EF90DF90CF9008958F929F92AF92BF92D1
:10115000CF92DF92EF92FF9260914502709146022A
:10116000072E000C880B990B0E94B8336B017C0191
:1011700080902D0290902E02A0902F02B09030020D
:101180000E9479079B01AC01C501B4010E9417348C
:101190009B01AC01C701B6010E94DE3520E030E0C2
:1011A00040E251E40E941734AB01BC0124E68EE911
:1011B00094E0FF90EF90DF90CF90BF90AF909F9022
:1011C0008F900C945306E0913E01F0913F013496CC
:1011D00065917591859194910895CF92DF92EF92E8
:1011E000FF920F931F93CF93DF932091BE02222390
:1011F00009F45BC1C82F96FF13C020E030E0A901BD
:1012000060912D0270912E0280912F0290913002F8
:101210000E94B133882309F448C10E94A40821C068
:10122000809160028111EBC020E030E0A901609163
:101230002D0270912E0280912F02909130020E9417
:10124000B133882309F431C10E94A40890912C0283
:101250008091C102933080F0811103C081E08093BE
:10126000C1028C2FDF91CF911F910F91FF90EF90D2
:10127000DF90CF900C94241C882311F180913102CF
:1012800090913202A0913302B091340280937D0498
:1012900090937E04A0937F04B093800480911A02FF
:1012A00090911B02A0911C02B0911D0280937904C1
:1012B00090937A04A0937B04B0937C041092C102B3
:1012C000C0902302D0902402E0902502F0902602E4
:1012D0002DEC3CEC4CE45DEBC701B6010E94B13350
:1012E00087FF6AC0C0903102D0903202E090330292
:1012F000F0903402A701960160917D0470917E0404
:1013000080917F04909180040E94FA349B01AC018B
:10131000C701B6010E94DE356B017C012091790482
:1013200030917A0440917B0450917C0460911A02C0
:1013300070911B0280911C0290911D020E94FA3450
:101340009B01AC01C701B6010E9417346B017C01FF
:101350000E94E3089B01AC01C701B6010E9417344B
:101360006B017C010E945036CB016031774224F43E
:101370001816190644F099C0C12C8CE3D82E8CE1C4
:10138000E82E86E4F82EC7FD03C08EEE0E94481AB0
:10139000E0913E01F0913F0139962491B701A601F9
:1013A00081E097E0DF91CF911F910F91FF90EF9037
:1013B000DF90CF900C9473052DEC3CEC4CE45DEB8E
:1013C000C701B6010E94EC3687FD6FC0809179019C
:1013D00090917A0197FF69C08091C302882319F028
:1013E00083EC93E002C082EC93E0DF91CF911F91F8
:1013F0000F91FF90EF90DF90CF900C94CF06D0919B
:101400004D020D2F10E080917804082E000C990BEE
:1014100008171907B9F16D2F70E080E090E00E9485
:10142000B6336B017C0160911002709111028091C2
:101430001202909113020E94B6339B01AC01C701C6
:10144000B6010E9417346B017C0140911E02042EEC
:10145000000C550B401B510BBA01550F880B990B13
:101460000E94B8339B01AC01C701B6010E94DE3572
:101470000E9472070E945736709377046093760437
:10148000D0937804C7FD03C087E10E94481A809179
:10149000760490917704DF91CF911F910F91FF9087
:1014A000EF90DF90CF900C946F05DF91CF911F915B
:1014B0000F91FF90EF90DF90CF900895CF92DF9241
:1014C000EF92FF920F931F93CF93DF9300D000D042
:1014D000CDB7DEB79B01AC0169833A834B835C8354
:1014E0000E94E30829813A814B815C810E94173474
:1014F0006B017C0120E03CE34CE156E40E94B133F7
:1015000000913E0110913F01F80118163CF0399608
:101510002491B701A60181E097E024C070966591FF
:10152000749180E090E00E94B6339B01AC01C7014A
:10153000B6010E94DE356B017C010E9450366A3094
:10154000710534F06436710534F081E097E005C030
:1015500084E396E002C080EF94E0F8013F96249186
:10156000B701A6010F900F900F900F90DF91CF91D0
:101570001F910F91FF90EF90DF90CF900C94730527
:1015800040913102509132026091330270913402E5
:1015900096FD09C0411551056105710521F0CB018A
:1015A000BA010C945E0A4091FC015091FD016091DA
:1015B000FE017091FF01F3CF0F931F93292F207429
:1015C00095FF15C06091FC017091FD018091FE01B5
:1015D0009091FF01222329F12091C1013091C20194
:1015E0004091C3015091C4010E94FA341AC0609125
:1015F000CD017091CE018091CF019091D001222335
:1016000061F00091D9011091DA012091DB01309154
:10161000DC01601B710B820B930B0E94B8330E949C
:1016200072071F910F910C945E0A60911A027091DB
:101630001B0280911C0290911D020C945E0A9B017A
:10164000FC014081518162817381420F531F611DF2
:10165000711D408351836283738308950F931F9399
:10166000CF93DF93EC018B010E94AA19DC01CB011F
:10167000800F911FA11DB11D88839983AA83BB830D
:10168000DF91CF911F910F910895FB012081822757
:1016900090E1899F900111242827822F90E0582FF4
:1016A00044279C0163E0220F331F6A95E1F742272C
:1016B0005327218130E02427352774E095958795BD
:1016C0007A95E1F7822793279183808308959C017F
:1016D000862FB9010C94450BCF92DF92EF92FF92C7
:1016E0000F931F93CF93DF931F92CDB7DEB76B019C
:1016F0007C018B01040F151FC016D10689F0F7017C
:1017000061917F01C60169830E94D5346981861782
:1017100019F0C6010E94DD34FFEFCF1ADF0AECCFCB
:101720000F90DF91CF911F910F91FF90EF90DF907D
:10173000CF900895EF92FF920F931F93CF93DF9373
:101740008C01040F151FEC017B01E81AF90AC01780
:10175000D10739F0C7018C0F9D1F0E94D5348993A2
:10176000F6CFDF91CF911F910F91FF90EF900895E9
:10177000CF93DF9300D0CDB7DEB790912B02682FC7
:1017800070E0660F771F80E8989F600D711D11242F
:1017900042E050E0CE0101960E949A0B89819A8125
:1017A0000F900F90DF91CF91089584E20E94B80BC3
:1017B00096FF08C08091BC0190E08C549F4F0E941E
:1017C000E10604C08091DD019091DE01880F991F30
:1017D0008D966AE570E00E94BF3777FF03C0685FAF
:1017E0007F4FFBCF67707727FB01E455FC4F849157
:1017F00008952F923F924F925F926F927F928F92B5
:101800009F92AF92BF92CF92DF92EF92FF920F938F
:101810001F93CF93DF93CDB7DEB761970FB6F894E0
:10182000DEBF0FBECDBF8A83998396FD0AC0698152
:101830008A818F5F0E949C1A1091900411FDA4C1AF
:1018400019C015E082EB0E947C1A0DE0015019F0DE
:101850000E94ED05FBCF133011F083EB01C085EC46
:101860000E947C1A0E94F005115009F3133051F7C1
:1018700086ECE9CF8091A2048034A9F420919202F1
:101880003091930240919402509195022B833C83B6
:101890004D835E8320918E0230918F0240919002A1
:1018A0005091910214C040919A0250919B02609114
:1018B0009C0270919D024B835C836D837E8320919B
:1018C000960230919702409198025091990260914E
:1018D0007B0170917C01072E000C880B990B2C87E3
:1018E0003D874E875F870E94B8332C853D854E85A6
:1018F0005F850E9417344B015C0110FF04C0B7FAEA
:10190000B094B7F8B094C501B4010E945036AB0151
:101910006A35710538F09B012D543F4F293531054B
:1019200078F4A9014734510564F54A3151050CF5A5
:101930004A30510518F158E0588B83EF10ED2EC056
:101940006B3571051CF0AB01435B5109CA0157FFB0
:1019500003C09195819591098734910594F48A315A
:1019600091059CF40A97B0F068E0688B85EF12EE61
:1019700015C077E0788B88EF19ED10C089E0888B6F
:101980000BC0188A8DEC11EC09C097E0988B8BEF97
:101990001BEE04C0A9E0A88B8DEC16EC7CE0C72EF2
:1019A000D12C00E02889022E000C330B3A872987BE
:1019B00086508B87E02E002E000CFF086091790185
:1019C00070917A016E0D7F1D072E000C880B990B0C
:1019D0000E94B83327EA32E94BE25CEB0E941734ED
:1019E0002B813C814D815E810E9417340E944337D8
:1019F00020E030E040EA50E40E94173420E030E07C
:101A000040E951E40E9417342B013C0120E030E012
:101A1000A9010E94EC3620E030E040E05FE387FD62
:101A20000BC0C301B2010E94FB340E9450361B015F
:101A30005DE2250E311C0AC0C301B2010E94FA34D6
:101A40000E9450361B01ADE22A0E311C8DE08C192C
:101A5000898B222733272E193F0938872F8339890D
:101A6000832F90E0C816D9060CF47DC025E33AEF29
:101A70004EE85CE3C501B4010E9417340E9443376D
:101A80002B013C0139894CE0349F602D11246E54A8
:101A9000062E000C770B880B990B0E94B8339B0124
:101AA000AC01C301B2010E9417340E94503691016B
:101AB000260F371FC90101978A35910508F04FC0DD
:101AC00062E170E00E94BF372B015889552399F0DD
:101AD0004EEE4603C001479F900D1124AC01420F0A
:101AE000531F4F5F5F4F57FF02C04F5F5F4F5595CA
:101AF0004795742E01C0712C64E064198989815066
:101B00000E945C1A002391F05989553079F4B7018D
:101B1000F7FE02C06F817885072E000C880B990BA9
:101B20004AE00E949D2166E0698B04C0872D810FE9
:101B30000E947C1A772099F0872D90E0A985BA85BC
:101B40008A179B0764F0B4E04B16510441F04B85B3
:101B5000470D63E06419898981500E94871A298999
:101B60002F5F298B7CCF37FE09C0025E34E0C31A99
:101B7000D10844E0C416D10439F01CCF4BE524163B
:101B8000310414F00E51F2CF598154FFB7C0E090E8
:101B9000BF01F090C0010091BD011091BE01C801CC
:101BA00017FF04C088279927801B910B6AEF70E00C
:101BB0000E94BF37E62F472FC701F7FE04C08827D2
:101BC00099278E199F096AEF70E00E94BF378E2F08
:101BD000942F861797070CF4CB01BC016F5F7F4FE2
:101BE00070938F0460938E04072E000C880B990B62
:101BF0000E94B8334B015C01B801110F880B990B9F
:101C00000E94B8332B013C012CEB34E743E95CE341
:101C1000C501B4010E94DE359B01AC01C301B201D4
:101C20000E94DE350E945036162FB701FF0C880B3C
:101C3000990B0E94B8332B013C0122E430E645EEBB
:101C40005CE3C501B4010E94DE359B01AC01C30118
:101C5000B2010E94DE3520E030E040E05FE30E9408
:101C6000FB340E945036062F862F6A8166FD0AC01B
:101C70000E94D50B62E0611B482F85E0800F0E9417
:101C8000871A3CC090916C04981304C080916D0435
:101C90008117E1F080917004909171049093730426
:101CA0008093720480916E0490916F0490937104FC
:101CB0008093700480916C0490916D0490936F04F4
:101CC00080936E0400936C0410936D04E12CF12C4E
:101CD00032E0D32EF701E459FB4F87816D2D681B4D
:101CE000868144E28B5F0E94871A72E0E71AF1084E
:101CF0008AEFE8168FEFF80669F7BACF9A8197FD59
:101D000008C062E085E00E945C1A84EB93E00E94C8
:101D1000CF06A981A5FFD9C08091BE02882309F40E
:101D2000D4C080916002811184C060910C027091D6
:101D30000D0280910E0290910F020E94B8339B0118
:101D4000AC01609131027091320280913302909126
:101D500034020E947A3521EE3EE245E652E40E94CA
:101D600017349B01AC010E94FB340E9450366A502C
:101D700071092DE2269FC001279F900D11246AE072
:101D800070E00E94BF37CB018D9697FD0196959527
:101D9000879569E070E00E94BF37062F653058F4E0
:101DA0001FEC181B412F8CE00E94871A412F602FD7
:101DB00081E00E94871A8091BC0190E02091060189
:101DC00030910701821B930B0E94E106853B910530
:101DD00034F028E631E0A901481B590BCA019C01E7
:101DE000245B310948E4429FC001439F900D1124B8
:101DF0006AE070E00E94BF37CB01849666E070E035
:101E00000E94BF3767FD07C06D3044F40FEB080F29
:101E100011E0160F05C011E00CE302C01CE00EE358
:101E2000402F64E0812F0E94871A402F60E0812FAD
:101E300032C0C090FC01D090FD01E090FE01F09016
:101E4000FF010E94E3089B01AC01C701B6010E949B
:101E5000173420E030E040EA50E40E94FB342DECDF
:101E60003CEC4CE850E40E9417340E945036862F18
:101E70009FEF960F9B3238F469E00E949D374FEC3C
:101E8000491B682F07C06C321CF064E04EE202C0B0
:101E900060E04FEC86E061960FB6F894DEBF0FBEAF
:101EA000CDBFDF91CF911F910F91FF90EF90DF9009
:101EB000CF90BF90AF909F908F907F906F905F90EA
:101EC0004F903F902F900C94871A61960FB6F8941C
:101ED000DEBF0FBECDBFDF91CF911F910F91FF905D
:101EE000EF90DF90CF90BF90AF909F908F907F90BA
:101EF0006F905F904F903F902F90089581E0809376
:101F0000B70288E0EEE5F4E0DF011D928A95E9F77B
:101F100080E00E94B80B9093910480939004089500
:101F200096FB222720F930E095FD03C080E090E089
:101F300002C082E090E0282B392B21503109233058
:101F4000310528F4F901E05FFE4F8081089580E0BB
:101F50000895CF92DF92EF92FF92CF93DF93D82F25
:101F6000C92F0E94900F80930801C7FD4CC0C4FF89
:101F70002AC081E08093CA0220E030E040E752E4CA
:101F800060911F02709120028091210290912202A3
:101F90000E94DE356B017C010E9450369B0177FF69
:101FA00004C022273327261B370B2A3031052CF596
:101FB000D6FD03C08AED93E002C083ED93E028E1F3
:101FC000B701A60112C01092CA02E0913E01F09141
:101FD0003F017296249140911F025091200260911E
:101FE0002102709122028CEC93E0DF91CF91FF905F
:101FF000EF90DF90CF900C94730524363105ECF20E
:102000008CEC93E0DCCFDF91CF91FF90EF90DF90ED
:10201000CF9008951F93CF93DF931F92CDB7DEB774
:10202000192F0E94900F282F6091140270911502B1
:1020300080E090E029830E94B633AB01BC01298186
:1020400081E894E00E9453066091810470918204BB
:1020500080918304909184040E9450368DE596E02F
:102060000E94B70480916A0280FD08C014FF06C078
:102070000F90DF91CF911F910C9470040F90DF911E
:10208000CF911F91089595FB222720F994FD02C05E
:1020900090E001C092E0922B86FD02C080E001C07A
:1020A00084E0892B08951F920F920FB60F9211248E
:1020B0008F939F93EF93FF9390913D0180913C010B
:1020C000981779F0E0913D01F0E0EC5DFA4F8081E6
:1020D0008093C60080913D018F5F837080933D01A6
:1020E00005C08091C1008F7D8093C100FF91EF9169
:1020F0009F918F910F900FBE0F901F9018951F9278
:102100000F920FB60F9211242F938F939F93EF93FB
:10211000FF939091C60080913A018F5F8F77209155
:102120003B01821741F0E0913A01F0E0EC55FB4FA2
:10213000908380933A01FF91EF919F918F912F911E
:102140000F900FBE0F901F901895E82FF0E0EE0F44
:10215000FF1FEB5CFD4F20813181662329F040E2B7
:1021600053E088E998E004C048EE53E080ED97E042
:102170002417350780F0241B350B841B950B65E075
:1021800070E00E94AB37C9010E94AB37862F6530E3
:1021900018F084E0089580E008951F93CF93DF93B3
:1021A000182FD92F87FD10C096FF04C0C0E082E72A
:1021B00096E003C0C1E081E896E00E94CF06812F3F
:1021C0009D2F0E94F70501C0C0E080911F029091F1
:1021D0002002A0912102B0912202BC01CD019058B1
:1021E0009B01AC010E94FB340E9450368091900408
:1021F00082FF05C0CB016CE370E00E94BF37D5FFC2
:1022000005C0CB016AE070E00E94BF37D4FF06C072
:1022100077FF02C06F5F7F4F7595679516FF08C007
:1022200077FF02C06D5F7F4F7595679575956795D0
:102230009B01235D3F4F37FF02C02F5F3F4FC90116
:102240009595879569E070E00E94BF3765302CF462
:1022500067FD06C04FEC481B05C04EE764E002C0B6
:1022600040E660E08C2FDF91CF911F910C94871A8C
:10227000CF92DF92EF92FF920F931F93CF93DF9352
:10228000D92F00915A0110915B0120915C0130918E
:102290005D018091D202882309F480C082EBE82E90
:1022A00087E0F82EE4E6F0E090E9C92EDD24D3942F
:1022B000C70183709927892B81F4C701BF010E9450
:1022C000AB37892B31F4C701B6010E94AB37892B9C
:1022D00021F461E08EE691E003C060E08DE691E0DC
:1022E000A0E0B0E0081719072A073B0718F440E000
:1022F00050E008C0081B190B2A0B3B0B8FEFE81AA4
:10230000F80AD6CFC42FFA01E95BF94FE4914130C6
:10231000510511F46111EF5F8E2F90E0A0E0B0E065
:10232000081719072A073B0750F0081B190B2A0B3F
:102330003B0B4F5F5F4F4C30510521F7CCE08D2FA9
:102340000F5F1F4FD0E086FF10C0B80184E596E014
:102350000E94B704BE016F5F7F4F83E596E00E9445
:10236000B704B70182E496E00FC0B70189E596E0B3
:102370000E94B704BE016F5F7F4F83E596E00E9425
:10238000B704B80183E596E0DF91CF911F910F91DB
:10239000FF90EF90DF90CF900C94B704DF91CF9136
:1023A0001F910F91FF90EF90DF90CF9008951F93B2
:1023B000CF93DF93D82F192F8091DF01823019F04E
:1023C00020F0CFE003C0CFE101C0CAE280917F01DD
:1023D00090918001883C910520F08091C302811189
:1023E000C0E2D7FD02C016FF11C06091830170E00A
:1023F0008BEC95E00E94B704D7FD0CC016FF0AC015
:102400008C2FDF91CF911F910C947C1A8C2F0E94FE
:102410007C1AEBCFDF91CF911F91089560917B01E2
:1024200070917C0184EE94E00C94B7046091790182
:1024300070917A018EED94E00C94B704CF93DF9302
:1024400087FD04C087E696E00E94CF06CEE4D1E087
:10245000499159916991799181E696E00E94EA0546
:1024600081E0CA35D807A1F70E94F005C8E4D1E0A1
:10247000699179918DE596E00E94B70481E0CE34B0
:10248000D807B1F7DF91CF91089560917F017091E6
:10249000800180E090E00E94B63320E030E048EC1C
:1024A00052E40E94DE35AB01BC0184E396E00C945B
:1024B000EA0540912702509128026091290270910B
:1024C0002A0281E696E00C94EA05EF92FF920F93C0
:1024D0001F93CF9300E411E0C0E096FD20C089E097
:1024E000E82EF12CF801819191918F018C54944048
:1024F000B7010E94AB3784E596E00E94B704C13073
:1025000019F40E94F00502C00E94ED05CF5FC430AF
:1025100049F712C00E94ED05CF5FC43069F0F801A1
:10252000619171918F0189E596E00E94B704C130F5
:1025300089F70E94F005F0CFCF911F910F91FF9086
:10254000EF9008950F931F93CF93C92F8091D202DC
:10255000882359F16091AB027091AC028091AD0279
:102560009091AE024091670250E0445151092CE332
:10257000249F8001259F100D11242CE330E040E0C2
:1025800050E00E94D337C801820F931FC5FF04C0DB
:10259000462F406860E004C0C6FB662760F940E053
:1025A000CF911F910F910C943705CF911F910F91EF
:1025B00008951F93CF93DF93182F0E9443108C5FD1
:1025C000C82FD0E017FD07C0BE016F5F7F4F8DE3BE
:1025D00096E00E94B704CC0FDD1FCB5CDD4F688115
:1025E000798189E596E0DF91CF911F910C94B70432
:1025F0001F93CF93DF93182FC92F0E944310D4E06D
:10260000D80F17FD08C06D2F70E06F5F7F4F8AE312
:1026100096E00E94B704C6FB662760F98D2F0E94E2
:10262000A510D82FC0E0CD1302C081E801C080E81A
:102630000E947C1ACF5FC530B1F7DF91CF911F9117
:1026400008951F93CF93DF93182FC92F0E94431033
:10265000D4E0D80F17FD08C06D2F70E06F5F7F4F7B
:102660008DE396E00E94B704C6FB662760F98D2FC4
:102670000E94A510182FC0E0D3E0CE010E94D534EF
:102680008F3F71F0811103C0112351F011501111CE
:1026900002C00E947C1A2196C03883E0D80769F7EF
:1026A000DF91CF911F91089563E0892F0C94C51B92
:1026B00062E0892F0C94C51B61E0892F0C94C51B27
:1026C00060E0892F0C94C51B0F931F93CF93DF936A
:1026D00005E312E0C0E0D0E0F801619171918F0153
:1026E0002196CE010E947521C830D105A9F7DF914E
:1026F000CF911F910F910895CF93DF93611103C084
:10270000CAEED4E002C0C0EFD4E0BC0180E090E0AB
:102710000E94B6330E947207AB01BC012DE0CE01CE
:10272000DF91CF910C9473050F931F93CF93DF9399
:1027300000D000D0CDB7DEB700918E0410918F0489
:102740000E94E3089B01AC016AEF609FC001619F9A
:10275000900D1124BC01990F880B990B2C833983A0
:102760004A835B830E94B8332C8139814A815B8123
:102770000E941734E0913E01F0913F0108321105AB
:102780005CF03F9624912C830E947207AB01BC0140
:102790002C8184E396E006C039962491AB01BC01FC
:1027A00081E097E00F900F900F900F90DF91CF9105
:1027B0001F910F910C947305809184018E30C1F4A8
:1027C0002091B90130E087E090E0482FB901082E50
:1027D00002C0759567950A94E2F760FD03C0019702
:1027E000A0F748E04093B90189E0E2E2F6E00BC0CF
:1027F00080916002882321F083E1E4EDF5E003C0DD
:1028000084E1EAEFF5E09091B901692F70E0981743
:1028100040F4CB01880F991FE80FF91F859194911F
:1028200002C08FEC95E00E94B7048091BE0288231D
:1028300019F086E80C94481A0895FF920F931F939D
:10284000CF93DF93F82E092F192F107287FD08C040
:1028500096FD06C01123C1F189EB95E00E94CF06D9
:1028600083EC0E94481A8091DD019091DE0148E1DD
:10287000489F9001499F300D1124C9010C9668E6CC
:1028800071E00E94BF3764507109C62F77FF02C004
:10289000C8E1C60F111102C0D9E001C0DAE0EC2F87
:1028A000F0E0EC56FA4F84910E947C1ACF5FC83159
:1028B00008F0C0E0D15099F787E80E94481AF7FC69
:1028C00014C006FD04C011C08CEA95E0C7CF1111F9
:1028D00003C08DE795E002C089E895E0DF91CF91D4
:1028E0001F910F91FF900C94CF06DF91CF911F9114
:1028F0000F91FF900895EF92FF920F931F93CF9344
:10290000DF931F92CDB7DEB720918501222309F412
:1029100072C040918C0450918D042091D502309169
:10292000D6024217530709F466C020915F01233095
:1029300010F401E201C000E0692F182F80918B0490
:102940009AE1F92EF81AF7FC16C08F2D8695810FA3
:102950000E949C1A17FD02C0011157C065E871E082
:102960008DE297E00F90DF91CF911F910F91FF9033
:10297000EF900C940C1917FD02C001114AC066FDBE
:102980001DC0F1942F2D30E08091AF0290918A0408
:10299000891B90E0B901660F771F0E94BF374091F5
:1029A000B00241110DC0009729F021503109821762
:1029B000930731F421E02093B00202C080E090E060
:1029C0009C012B573E4F79018901065E1F4FF7018D
:1029D00081917F01811109C00F90DF91CF911F91EB
:1029E0000F91FF90EF900C94ED050E947C1AE01679
:1029F000F10669F7F1CF109285010F90DF91CF9129
:102A00001F910F91FF90EF900895802F0E947C1AE4
:102A1000A5CF802F69830E947C1A6981B0CFCF93A4
:102A20008091C502882379F0C92F8091BC010E9452
:102A3000A304C6FF08C06091BC0170E08DE596E07C
:102A4000CF910C94B704CF910895AF92BF92CF92DB
:102A5000DF92EF92FF921F93CF93DF9300D000D0CD
:102A6000CDB7DEB78091B9018A3009F07DC0A09062
:102A70006501B090660188EEA81683E0B80654F4AC
:102A800089E1A8168CEFB8064CF489E1A82E8CEFEA
:102A9000B82E04C097EEA92E93E0B92EE0913E0126
:102AA000F0913F01399614916091640170E08BECD4
:102AB00095E00E94B7040E94ED0560916701709156
:102AC000680180E090E00E94B6336B017C010E94B7
:102AD000E3089B01AC01C701B6010E941734AB01AA
:102AE000BC01212F81E097E00E9473050E94F00550
:102AF0008091690190916A010E94E1062091DD01B7
:102B00003091DE01821B930B0E94C1060E94A30438
:102B100087EC95E00E94CF060E94E3089B01AC0180
:102B2000B501BB0C880B990B29833A834B835C83DB
:102B30000E94B83329813A814B815C810E9417340D
:102B4000AB01BC01212F81E097E00F900F900F9017
:102B50000F90DF91CF911F91FF90EF90DF90CF907A
:102B6000BF90AF900C9473050F900F900F900F9043
:102B7000DF91CF911F91FF90EF90DF90CF90BF90AA
:102B8000AF90089587FD04C00E94D50B0E947C1A67
:102B90006091DD017091DE018DE596E00E94B70441
:102BA00085E00C94481A69EC71E0892F0C94591C4B
:102BB00065EC71E0892F0C94591C1F93CF93DF9320
:102BC0004091C9015091CA016091CB017091CC0133
:102BD000452B462B472B69F44091C5015091C60106
:102BE0006091C7017091C801452B462B472B09F412
:102BF00045C094FD02C01FEF01C010E2C92FD82FBD
:102C00008091C302882301F18091CF028A3050F075
:102C100086E095E00E94CF06812F0E947C1A8FEFFC
:102C200094E00DC08091D0028A3070F086E095E08B
:102C30000E94CF06812F0E947C1A86EF94E0DF91DC
:102C4000CF911F910C94CF06D7FD03C083E00E9463
:102C5000481A65EC71E08C2F0E94591C812F0E944C
:102C60007C1AD7FD03C084E00E94481A69EC71E029
:102C70008C2FDF91CF911F910C94591CDF91CF9134
:102C80001F91089596FB442740F9609110027091BE
:102C9000110280911202909113020C944A1CCF925F
:102CA000DF92EF92FF920F931F93CF93DF93EC018C
:102CB000D62EFE01059114910115110509F46DC080
:102CC000FE013296849181110E947C1AFE01339696
:102CD00084913196E590F490893691F030F4813604
:102CE00009F43FC08836C1F004C08337F1F086375D
:102CF00029F150E2C52E60E070E080E89FE33AC021
:102D0000F70160817181072E000C880B990B0E94DE
:102D1000B83340E2C42E35C0E0913E01F0913F014E
:102D20003996C4900E94E30825C0E0913E01F091DD
:102D30003F013896C4900E9479071CC00E94E308A6
:102D40002091CA02211114C0E0913E01F0913F018F
:102D50007296C49020E030E040E752E40E941734BD
:102D600009C031E4C32E6AE077ED83E29CE302C040
:102D700028E1C22EF70120813181428153810E94D6
:102D800017342C2DAB01BC01C8010E9473050E94B1
:102D9000F0052796DA94D1108CCFDF91CF911F9157
:102DA0000F91FF90EF90DF90CF90089567E08CE453
:102DB00095E00C944F16CF93DF93D82FC92F0E9424
:102DC000F70588E00E94481A609110027091110284
:102DD000809112029091130240E00E944A1C69E027
:102DE0008DE095E00E944F16C6FF05C06C2F8AE06B
:102DF0008D0F0E949C1A83E00E94481A65EC71E0D6
:102E000080E00E94591C0E94F00584E00E94481A4C
:102E100069EC71E080E0DF91CF910C94591C1F9315
:102E2000CF93DF931F92CDB7DEB797FD2DC0192F3B
:102E300091E09093D302912F0E94900F282F6091E0
:102E40004B0270914C0280E090E029830E94B633DF
:102E5000AB01BC0129818AE994E00E9453061295D6
:102E6000117060919A0470919B0480919C049091E0
:102E70009D040E945736DC01CB01612F0F90DF913A
:102E8000CF911F910C947C1381E090919E0291113F
:102E900001C080E08093D3020F90DF91CF911F910A
:102EA00008951F93CF93DF931F92CDB7DEB7192FED
:102EB0000E94900F282F60914E0270914F0280E087
:102EC00090E029830E94B633AB01BC01298186E9D9
:102ED00094E00E94530612951170609196047091CF
:102EE000970480919804909199040E945736DC01D0
:102EF000CB01612F0F90DF91CF911F910C947C1328
:102F00000F931F93CF93DF931F92CDB7DEB7192F87
:102F10000E94900F282F6091450270914602072E63
:102F2000000C880B990B29830E94B833AB01BC01BC
:102F3000298182E994E00E94530614FD03C00AEE41
:102F400014E002C000EF14E02AE037ED43E25CE356
:102F500060919204709193048091940490919504EF
:102F60000E941734AB01BC012EE0C8010F90DF9125
:102F7000CF911F910F910C94730596FB882780F9D0
:102F80008093D4028091C502882371F097FD0CC014
:102F900060910C0270910D0280910E0290910F02CF
:102FA0000E94B8330C945E0A0895CF92DF92EF929C
:102FB000FF920F931F93CF93DF936C017A018B01E4
:102FC000C0E0D0E0CE15DF0589F0D8016D918D010C
:102FD000D601ED91FC910190F081E02DC60109959B
:102FE000892B11F47E0102C02196ECCFC701DF913D
:102FF000CF911F910F91FF90EF90DF90CF900895A8
:103000000895833081F028F4813099F08230A1F066
:1030100008958730A9F08830B9F08430D1F48091D8
:1030200080008F7D03C0809180008F778093800027
:10303000089584B58F7702C084B58F7D84BD0895CF
:103040008091B0008F7703C08091B0008F7D809316
:10305000B00008953FB7F894809125079091260716
:10306000A0912707B091280726B5A89B05C02F3F40
:1030700019F00196A11DB11D3FBFBA2FA92F982F9E
:103080008827820F911DA11DB11DBC01CD0142E019
:10309000660F771F881F991F4A95D1F708958F9261
:1030A0009F92AF92BF92CF92DF92EF92FF926B010D
:1030B0007C010E942A184B015C01C114D104E10477
:1030C000F104F1F00E942A18DC01CB01881999095A
:1030D000AA09BB09883E9340A105B10570F321E020
:1030E000C21AD108E108F10888EE880E83E0981E24
:1030F000A11CB11CC114D104E104F10419F7DDCF06
:10310000FF90EF90DF90CF90BF90AF909F908F9007
:10311000089590913C019F5F937020913D0192171B
:10312000E1F3E0913C01F0E0EC5DFA4F8083909395
:103130003C018091C10080628093C1000895089590
:103140008091C10084FF03C0862F0E94891881E00E
:1031500090E00895EAE3F1E081818083ECE3F1E01F
:103160008081818308959091C100892F807194FF9F
:103170000EC090913A0180913B01981302C080E00B
:103180000895E0913B01F0E0EC55FB4F80810895FC
:10319000089580E0089580E0089580E0089580E03B
:1031A00090E00895CF92DF92EF92FF92CF936B0160
:1031B0007C01C42F20E030E0A9010E94EC361816F3
:1031C00024F0F7FAF094F7F8F094C701B6010E94E2
:1031D0005036072E000C880B990B0E94B8339B01C8
:1031E000AC01C701B6010E94FA34C11105C020E04C
:1031F00034E244E759E404C020E030E543EC57E40E
:103200000E9417340E945036CF91FF90EF90DF90CC
:10321000CF9008950E9479386115710579F0FB010E
:1032200001900020E9F73197AF01461B570BDC01F5
:10323000ED91FC910280F381E02D099480E090E013
:1032400008951F93CF93DF93282F30E0F901EB5EB1
:10325000F84F8491F901E95BF84FD491F901ED5CE5
:10326000F84FC491CC23C9F0162F81110E94011888
:10327000EC2FF0E0EE0FFF1FE15EFE4FA591B49141
:103280008FB7F894111105C09C91ED2FE095E923BB
:1032900002C0EC91ED2BEC938FBFDF91CF911F918A
:1032A0000895CF93DF9390E0FC01E95BF84F249100
:1032B000FC01ED5CF84F8491882361F190E0880F68
:1032C000991FFC01E55FF84FC591D491FC01E15EC7
:1032D000FE4FA591B491611109C09FB7F894888100
:1032E000209582238883EC912E230BC0623061F4F9
:1032F0009FB7F8943881822F809583238883EC913F
:103300002E2B2C939FBF06C08FB7F894E8812E2BED
:1033100028838FBFDF91CF9108958E3008F08E50B3
:1033200087702091000190E4299F90011124822B45
:1033300080937C0080917A00806480937A008091F1
:103340007A0086FDFCCF809178002091790090E092
:10335000922B08952FB7F89460912107709122075E
:1033600080912307909124072FBF08951F920F92F9
:103370000FB60F9211242F933F938F939F93AF9388
:10338000BF938091210790912207A0912307B091CC
:1033900024073091200723E0230F2D3720F40196D6
:1033A000A11DB11D05C026E8230F0296A11DB11D68
:1033B000209320078093210790932207A09323074F
:1033C000B09324078091250790912607A0912707A5
:1033D000B09128070196A11DB11D809325079093F8
:1033E0002607A0932707B0932807BF91AF919F911D
:1033F0008F913F912F910F900FBE0F901F901895B6
:103400009091C100892F807194FF14C090913A016E
:1034100080913B01981302C080E00895E0913B0148
:10342000F0E0EC55FB4F808190913B019F5F9F77CF
:1034300090933B0108950C94001A9091C100892F3C
:10344000807194FF06C080913A0190913B01891BE5
:103450008F7708950C941D1ADC01ED91FC91019079
:10346000F081E02D09940F931F93CF93DF938C018C
:10347000FB016491EF012196662329F0C8010E94A7
:103480002C1AFE01F6CFDF91CF911F910F91089575
:1034900020913E0530913F05203E91E0390758F4D8
:1034A000A9014F5F5F4F50933F0540933E05F901DF
:1034B000E05CFA4F808308959091A304690F909186
:1034C0003D05890F90E02EE1629F800D911D112432
:1034D00090933F0580933E0508952091A304809129
:1034E0003D0590E03EE1239F800D911D11249093B6
:1034F0003F0580933E0508958F3F39F48091A304E2
:103500008F5F8093A3040C946D1A0C94481ACF9388
:10351000DF931F92CDB7DEB749830E945C1A4981C1
:10352000842F0F90DF91CF910C947C1A862F0E94EC
:103530007C1A81E090E008958F7180933D056F7053
:103540006093A3048091A204803411F0673010F4DA
:103550000C946D1A63506093A304FACF8EBD0DB422
:1035600007FEFDCF8EB58FEF8EBD0DB407FEFDCFEC
:103570008EB508958EBD0DB407FEFDCF8EB56EBD20
:103580000DB407FEFDCF8EB508955E9860E085E02E
:103590000E94BA1A60E086E00E94BA1A61E084E0F4
:1035A0000E94BA1A5E9AE0E4F5E080E25E989081AB
:1035B0009EBD0DB407FEFDCF9EB581935E9A97E048
:1035C000E032F90798F35E988FEF8EBD0DB407FED9
:1035D000FDCF8EB55E9A0895882311F080E401C076
:1035E00080E09091A204981751F08093A2045E9815
:1035F0006091A2046C6180E00E94BA1A5E9A0895FC
:103600005E9880915D0281FD06C080915C0283FF1F
:103610001CC081E01BC080EA0E94AE1A80FF07C078
:1036200081E00E94EC1A80915C02886008C081FFF2
:1036300009C080E00E94EC1A80915C02877F809331
:103640005C0206C082FDE1CF03C080E00E94EC1A5C
:103650005E9A0895CF93DF935E988CEE0E94AE1A27
:10366000682F6F7E8CE60E94BA1A62E18CE00E949D
:10367000BA1AC091A2046C2F6C6380E00E94BA1A3F
:1036800066E970E080E090E00E944F186C2F6C615A
:1036900080E00E94BA1A5E98E0916202E43008F07D
:1036A000E0E0F0E0E95FF84FC49180E1D1E0D80FAD
:1036B0006C2F0E94BA1A8D2FD032C1F76091A002F0
:1036C00082E00E94BA1A60919F0283E00E94BA1AB7
:1036D0005E9ADF91CF910895CF93DF935E98CFE00C
:1036E000DFEF80EA0E94AE1A877081F4C150C150AA
:1036F00030F0DEBD0DB407FEFDCF8EB5F8CF6FE024
:1037000070E080E090E00E944F18EBCF6091A2043F
:10371000626080E00E94BA1A6FE070E080E090E0A2
:103720000E944F18DF91CF910C942A1BCF92DF9209
:10373000EF92FF921F93CF93DF93EC016A017B011D
:10374000122F0E9479079B01AC01C701B6010E94AC
:103750001734112341F026E636E646E650E40E948F
:10376000DE3528E106C0E0913E01F0913F01389638
:103770002491AB01BC01CE01DF91CF911F91FF904D
:10378000EF90DF90CF900C9473050F931F93CF931E
:10379000DF93CDB7DEB768970FB6F894DEBF0FBEE4
:1037A000CDBF062F10E0F801E85AFD4F87FD40C05D
:1037B00091E09083F801E95BFD4F86FB882780F953
:1037C000808388E1689FB001112460587D4F48E1F3
:1037D00050E0CE0101960E949A0B000F111FF801D4
:1037E000E05BFD4F6081718180E090E00E94B63324
:1037F00029813A814B815C810E9417342D813E8161
:103800004F8158850E94FB349F938F937F936F93D2
:10381000CE0109969F938F938DE297E09F938F93AC
:103820000E948C210FB6F894DEBF0FBECDBF01C041
:10383000108268960FB6F894DEBF0FBECDBFDF9141
:10384000CF911F910F910895CF93C82F60919E043F
:1038500070919F048091A0049091A1040E94503621
:10386000615071096F30774298F4C7FD03C086E15B
:103870000E94481A40919E0450919F046091A004B8
:103880007091A10421E081E097E0CF910C94730541
:10389000CF910895CF93C42F28EE33E040E050E05D
:1038A0000E94D337DA01C90140E06C2FCF910C940C
:1038B0003705CF93DF93282F86FB442740F9E42F69
:1038C000F0E0DB016D917D918D919C91EE0FFF1FDA
:1038D00025FF1DC0E350F94FC591D4910E94D21825
:1038E0009F938F937F936F93DF93CF938DE297E0B6
:1038F0009F938F930E946421ADB7BEB718960FB601
:10390000F894BEBF0FBEADBFDF91CF910895E750D1
:10391000F94F25913491AB01BC01C901DF91CF91E1
:103920000C94EA05EF92FF921F93CF93DF931F92BF
:10393000CDB7DEB7182F7C018E2D811B861760F462
:10394000F70181917F019091C10094FFF5CF6983C8
:103950000E9489186981F0CF0F90DF91CF911F915C
:10396000FF90EF9008950E94FA3420EC3BE649ED79
:1039700057E40E941734089597FD05C08F3F9105C5
:1039800009F01CF4089580E008958FEF0895E09108
:103990000F01EF5FE0930F01E770F0E0EE0FFF1F04
:1039A000E35DFA4F9183808388E060E070E08150AE
:1039B000E82FF0E0EE0FFF1FE35DFA4F2081318129
:1039C000620F731F8111F3CF80E090E00E94B63345
:1039D00020E030E040E05EE30E941734089565E0A7
:1039E00082E00E949C1A81EC96E00E94CF060E9421
:1039F000AA19882799274AE00E949D218091D10227
:103A0000882359F061E081E00E949C1A609176025F
:103A100070E084EA96E00E94B7040E94C51A66E945
:103A200070E080E090E00C944F181F920F920FB658
:103A30000F921124CF92DF92EF92FF922F933F9338
:103A40004F935F936F937F938F939F93AF93BF93A6
:103A5000CF93DF93EF93FF930E942A186B017C01B1
:103A6000E8E1F7E08491EAE4F7E0D491E6E3F7E0F7
:103A7000C491CC23B9F081110E940118EC2FF0E021
:103A8000EE0FFF1FE75DF84FA591B491EC91ED2388
:103A900049F0C0922905D0922A05E0922B05F092B8
:103AA0002C051FC08091290590912A05A0912B0516
:103AB000B0912C050097A105B10599F0C81AD90A53
:103AC000EA0AFB0AD092BB01C092BA011092290502
:103AD00010922A0510922B0510922C0581E08093FC
:103AE0002805FF91EF91DF91CF91BF91AF919F9109
:103AF0008F917F916F915F914F913F912F91FF90A7
:103B0000EF90DF90CF900F900FBE0F901F90189501
:103B10001F920F920FB60F9211242F933F934F9342
:103B20005F936F937F938F939F93AF93BF93EF9325
:103B3000FF9381E08093AA021092B6028091A902BD
:103B40008F5F8093A9020E94AA196093B1027093BB
:103B5000B2028093B3029093B4028091B50288239D
:103B600021F00E94C51A1092B502FF91EF91BF910A
:103B7000AF919F918F917F916F915F914F913F9105
:103B80002F910F900FBE0F901F9018952F923F927C
:103B90004F925F926F927F928F929F92AF92BF925D
:103BA000CF92DF92EF92FF920F931F93CF93DF9309
:103BB000CDB7DEB763970FB6F894DEBF0FBECDBFAB
:103BC0006C874A016901CE0101963C01F4018C85A4
:103BD00080FD259180FF21914F01222309F45BC3D1
:103BE000253241F480FD259180FF21914F0125323E
:103BF00091F409C02A3039F46DE08DE297E02B8B07
:103C00000E942C1A2B89622F8DE297E00E942C1AB9
:103C100056016501DBCF10E0F12C00E00032A0F48A
:103C20002B3269F030F4203259F0233269F400610C
:103C30002CC02D3239F0203339F4016026C00260E7
:103C4000046023C0086021C007FD28C080ED820FFA
:103C50008A3078F406FF06C0FAE01F9F800D112419
:103C6000182F13C02AE0F29E800D1124F82E006256
:103C70000CC02E3221F406FD0EC3006406C02C36A3
:103C800011F4006802C0283649F4F4018C8580FDE7
:103C9000259180FF21914F012111C0CF8BEB820F25
:103CA000833018F40061205E06C08BE9820F8330F8
:103CB00008F06CC10F7E06FF16E00F73502E2536FC
:103CC00021F4902F9064592E08C0263621F4E02F5D
:103CD000E0685E2E02C01111115057FE06C01C3361
:103CE00050F4EE24E394E10E08C0183040F0E12CCB
:103CF00027E017E006C05CE3E52E27E002C0212F95
:103D0000E12C5601F4E0AF0EB11CF6016081718127
:103D1000828193810E2DA3010E940D226C010981E5
:103D200000FF02C003FF07C051FC08C052FE09C0DB
:103D300040E2442E07C03DE2432E04C02BE2422E57
:103D400001C0412C802F8C7019F0411063C29CC2BD
:103D500057FE0FC0EC0C04FF04C08A81813309F4C4
:103D6000EA941E1474F5F8E0FE1578F598E0E92E53
:103D70002CC056FC2AC0812F90E08C159D059CF02C
:103D80002CEFC2162FEFD20674F0852D8068582EC6
:103D90000AC0E2E0F0E0EC0FFD1FE10FF11D8081B1
:103DA000803319F411501111F4CF57FE0EC0EE24D8
:103DB000E394E10E812F90E0C816D9062CF41C196B
:103DC00004C0EE24E39401C010E057FE06C01C14AA
:103DD0001D0434F4C601019605C085E090E002C0E0
:103DE00081E090E041100196112331F0212F30E065
:103DF0002F5F3F4F820F931F2F2D30E082179307C5
:103E000014F4F81A01C0F12C852D897049F4FF20B3
:103E100039F060E28DE297E00E942C1AFA94F7CF15
:103E2000442029F0642D8DE297E00E942C1A53FC67
:103E300009C0FF2039F060E38DE297E00E942C1A60
:103E4000FA94F7CF57FE54C09C2D8D2DD7FE02C09B
:103E500090E080E0292E382E412C512CF601EE19ED
:103E6000F109FE87ED87C60182199309988B8F8728
:103E7000612F70E0EE27FF27E61BF70BFA8BE98B2B
:103E8000FFEF2F163F0629F46EE28DE297E00E94C5
:103E90002C1AC214D3046CF08D859E85821593056F
:103EA00044F4EF85F889E40DF51DE60DF71D6181F9
:103EB00001C060E391E0291A3108EFEF4E1A5E0A63
:103EC00089899A89281639062CF08DE297E00E949C
:103ED0002C1AD6CF2C143D0409F053C08A818633A6
:103EE00028F4853309F04DC004FD4BC061E349C09F
:103EF0006A81613309F00F7E8DE297E00E942C1AEF
:103F0000111104C054FC17C065E616C06EE28DE2C4
:103F100097E00E942C1A82E0EE24E394E80EF3016D
:103F2000E80FF11D60818DE297E00E942C1A11507C
:103F30008E2D91F7E7CF65E48DE297E00E942C1A71
:103F4000D7FC05C0C114D10439F404FF05C0D194D5
:103F5000C194D1086DE201C06BE28DE297E00E944E
:103F60002C1A60E3EAE0CE16D1042CF06F5F9AE0E1
:103F7000C91AD108F7CF8DE297E00E942C1A60E3AE
:103F80006C0D8DE297E00E942C1A58C1233631F057
:103F9000233781F0233509F055C020C05601F2E0E7
:103FA000AF0EB11CF6018081898344244394512CC7
:103FB000630112C05601F2E0AF0EB11CF601C080E1
:103FC000D18006FF03C0612F70E002C06FEF7FEF6A
:103FD000C6010E94A6332C010F7713C05601F2E0F0
:103FE000AF0EB11CF601C080D18006FF03C0612F67
:103FF00070E002C06FEF7FEFC6010E949B332C017F
:10400000006803FD1BC08F2D90E048165906B0F4E0
:1040100060E28DE297E00E942C1AFA94F4CFF60148
:1040200007FD659107FF61916F018DE297E00E94A6
:104030002C1AF110FA94F1E04F1A5108411451046E
:1040400071F7FCC0243611F0293661F5560107FFDF
:1040500009C024E0A20EB11CF60160817181828149
:1040600093810AC0F2E0AF0EB11CF601608171814C
:10407000072E000C880B990B0F76C02E97FF0AC0F5
:1040800090958095709561957F4F8F4F9F4FF02F42
:10409000F068CF2E2AE030E0A3010E94E522D82E5E
:1040A000D61848C0253729F40F7EE02E2AE030E0EC
:1040B00025C0802F897FE82E2F36C1F018F42835CF
:1040C00079F0E9C0203719F0283721F0E4C0982FA3
:1040D0009061E92EE4FE0DC0EE2DE460EE2E09C0E5
:1040E00004FF0AC0F82FF660EF2E06C028E030E08B
:1040F00005C020E130E002C020E132E05601E7FED9
:1041000009C084E0A80EB11CF60160817181828132
:10411000938108C0F2E0AF0EB11CF601608171819D
:1041200080E090E0A3010E94E522D82ED618FE2D53
:10413000FF77CF2EC6FE0BC00C2D0E7FD11650F48C
:10414000C4FE0AC0C2FC08C00C2D0E7E05C0ED2CBA
:104150000C2D03C0ED2C01C0E12E04FF0DC0FE01AB
:10416000ED0DF11D8081803311F4097E09C002FF3D
:1041700006C0E394E39404C0802F867809F0E394AA
:1041800003FD11C000FF06C01D2DEF1418F41F0D14
:104190001E19EF2CEF1458F460E28DE297E00E94B4
:1041A0002C1AE394F7CFEF1410F4FE1801C0F12C91
:1041B00004FF0DC060E38DE297E00E942C1A02FF1D
:1041C00014C001FD02C068E70CC068E50AC0802F7A
:1041D000867859F001FF02C06BE201C060E207FD82
:1041E0006DE28DE297E00E942C1AD11638F460E35C
:1041F0008DE297E00E942C1A1150F7CFDA94F30168
:10420000ED0DF11D60818DE297E00E942C1AD11016
:10421000F5CF14C024E02F1520F584E0F81A53FEE2
:1042200017C041101FC003FF23C007E617E0F52D9C
:10423000F0715F2EF801649161111DC0FF2009F437
:10424000E8CC60E28DE297E00E942C1AFA94F6CF57
:1042500060E28DE297E00E942C1AFA94F110F8CFF8
:10426000E0CFF12C642D8DE297E00E942C1ADBCF79
:1042700003E617E0DCCF511060528DE297E00E9418
:104280002C1A0F5F1F4FD6CF83E08F1510F483E0F9
:10429000C5CFF12CC8CF63960FB6F894DEBF0FBE22
:1042A000CDBFDF91CF911F910F91FF90EF90DF90E5
:1042B000CF90BF90AF909F908F907F906F905F90C6
:1042C0004F903F902F900895CF93DF93CDB7DEB7F7
:1042D0009E01275F3F4F4F81588561E08DE297E057
:1042E0000E94C61DDF91CF9108957F936F939F9396
:1042F0008F938BE597E09F938F938DE297E09F9349
:104300008F930E9464218DB79EB708960FB6F894DC
:104310009EBF0FBE8DBF0895CF93DF93CDB7DEB79D
:104320009E01275F3F4F4F81588560E08DE297E007
:104330000E94C61DDF91CF9108958F929F92AF92F8
:10434000BF920F931F93CF93DF93CDB7DEB7A197A3
:104350000FB6F894DEBF0FBECDBF19A2423008F4ED
:104360004AE08E010F5D1F4F842E912CA12CB12CA1
:10437000A50194010E94D337E62FB901CA0101506B
:104380001109EA3014F4E05D01C0E95CD801EC9356
:10439000232B242B252B61F7B8018DE297E00E9497
:1043A0000C19A1960FB6F894DEBF0FBECDBFDF91FA
:1043B000CF911F910F91BF90AF909F908F900895D4
:1043C0000F931F9390E0FC01E95BF84FA491FC016F
:1043D000ED5CF84FE491F0E0EE0FFF1FE75DF84F62
:1043E000859194918A019B013F704A2F6A2F0E9408
:1043F0004323611571058105910549F0DC01CB016D
:104400000196A11DB11DBC01CD019F7003C060E0EC
:1044100070E0CB011F910F910895283008F027E03C
:104420003327DA01990F311D87FD916000966105F0
:10443000710539F432602E5F3D9330E32A95E1F740
:1044400008959F3F30F080387105610509F03C5FA9
:104450003C5F3D93913008F08068911DDF93CF93CE
:104460001F930F93FF92EF92192F987F9695E92F44
:1044700096959695E90FFF27EB53F84F9927332729
:10448000EE24FF24A701E70105900894079428F47F
:10449000360FE71EF81E491F511D660F771F881F34
:1044A000991F0694A1F70590079428F4E70EF81ECB
:1044B000491F561FC11D770F881F991F661F06943D
:1044C000A1F70590079428F4F80E491F561FC71F3F
:1044D000D11D880F991F661F771F0694A1F70590BD
:1044E000079420F4490F561FC71FD81F990F661F46
:1044F000771F881F0694A9F784911095177041F0D3
:10450000D695C79557954795F794E7941A95C1F7AF
:10451000EBE6F7E0689415901591359165919591CA
:1045200005907FE27395E118F10A430B560BC90B16
:10453000D009C0F7E10CF11E431F561FC91FD01D43
:104540007EF4703311F48A95E6CFE894015030F090
:10455000080F0AF40027021708F4202F2395022FD2
:104560007A3328F079E37D932A95E9F710C07D939B
:104570002A9589F606949795679537951795179418
:10458000E118F10A430B560BC90BD00998F023959B
:104590007E9173957A3308F070E37C932013B8F71B
:1045A0007E9170617D9330F0839571E37D9370E32C
:1045B0002A95E1F71124EF90FF900F911F91CF9171
:1045C000DF91992787FD90950895FA01AA27283051
:1045D00051F1203181F1E8946F936E7F6E5F7F4FD0
:1045E0008F4F9F4FAF4FB1E03ED0B4E03CD0670F4C
:1045F000781F891F9A1FA11D680F791F8A1F911D9F
:10460000A11D6A0F711D811D911DA11D20D009F4EE
:1046100068943F912AE0269F11243019305D319330
:10462000DEF6CF010895462F4770405D4193B3E019
:104630000FD0C9F7F6CF462F4F70405D4A3318F0C0
:10464000495D31FD4052419302D0A9F7EACFB4E071
:10465000A6959795879577956795BA95C9F7009729
:104660006105710508959B01AC010A2E06945795CA
:10467000479537952795BA95C9F7620F731F841F21
:10468000951FA01D0895CF92DF92EF92FF920F9396
:104690001F93E82FF92F05C0015011092109310995
:1046A00061F1908196239417B9F305C00150110967
:1046B0002109310911F1908196239413F7CFC12C70
:1046C000D12CE12CF12C0AC08FEFC81AD80AE80AC5
:1046D000F80A0C151D052E053F0579F0808186230B
:1046E000841791F36C2D7D2D8E2D9F2D1F910F9191
:1046F000FF90EF90DF90CF90089560E070E080E051
:1047000090E01F910F91FF90EF90DF90CF90089570
:10471000CF93DF93CDB7DEB7AE970FB6F894DEBF79
:104720000FBECDBF789484B5826084BD84B58160AE
:1047300084BD85B5826085BD85B5816085BD80916C
:104740006E00816080936E001092810080918100E4
:1047500082608093810080918100816080938100DC
:10476000809180008160809380008091B10084609E
:104770008093B1008091B00081608093B0008091FF
:104780007A00846080937A0080917A0082608093BE
:104790007A0080917A00816080937A0080917A001B
:1047A000806880937A001092C1000FB6F894A895A3
:1047B00080916000886180936000109260000FBE5D
:1047C0008091C10084FD1092C10010923D011092B1
:1047D0003C0110923B0110923A011092C0001092DD
:1047E000C50080E18093C40088E98093C10086E021
:1047F0008093C2004DE450E060E072E08CE592E00E
:104800000E949A0B80915C0281FD03C08CEE90E0C7
:1048100002C08FEF90E090933F0180933E01809122
:1048200076028F3421F4809177028A3119F081E089
:104830008093D10284B58C7F84BD83E08093000196
:1048400080917A008B7F80937A0080917A008660D5
:1048500080937A00809169008C7F826080936900E8
:10486000E89A80916102813059F462E083E00E940D
:10487000511980916900837F846080936900E99A6F
:1048800089E297E09093D8028093D7025E9A0E94C3
:10489000C51A789480917802893341F48091790225
:1048A000813321F480917A02883389F089E38093FF
:1048B000780281E38093790288E380937A0243E06F
:1048C00050E06CE172E088E792E00E946C0B80910E
:1048D000A102882341F1E091A202EE2321F1F0E050
:1048E000E85DFE4F149161E0812F0E94511960E054
:1048F000812F0E942119812F90E0FC01ED5CF84F7F
:104900002491FC01E95BF84F849180930D04E22F20
:10491000F0E0EE0FFF1FE15EFE4F859194919093C2
:104920000C0480930B0461E086E00E94511962E060
:1049300082E00E94511961E08AE00E94511961E011
:104940008AE00E9421190E946C1B0E94001B0E9499
:104950002A1B0E94EF1C0E947E0F62E171E089E237
:1049600097E00E94331A87EB91E022E3281B2CA7E3
:10497000AE014D5E5F4F588F4F8BBE016F5F7F4F13
:104980007A8F698F675F6DA7A89578940E94AA199E
:104990002B013C0128EE33E040E050E00E94D33789
:1049A0003093D6022093D5027CED471675E057066A
:1049B0006104710448F08091D102811105C0E4EED8
:1049C000F2E090E481E0B6C00E941D1A882309F449
:1049D0009FC00E94001A8A3031F480915D048F5F7D
:1049E00080935D0402C010925D0480915D04843068
:1049F00058F38CB583608CBD0E94050665E085E0A8
:104A00000E949C1A8DE291E00E94CF060E94C51A76
:104A100000E0A12CC12CE12CF12CD12CB12C3FEFCA
:104A2000E316F10411F00CF06EC00E941D1A8823E9
:104A3000B1F30E94001A182F823338F48033F8F44F
:104A40008A3049F08D3059F023C0823709F5A1E052
:104A5000EA1AF1081DC08DE0A81609F452C0C11071
:104A600003C00E9405064DC098E0D91210C0EB2D7E
:104A7000F0E0EC51FD4F0083B39400E008C0000F5C
:104A8000813309F40F5FD394CC24C39401C0D12C9B
:104A9000B0E4BB1236C05E9860E080E00E94BA1AB3
:104AA0006E2D89E00E94BA1AB4EEAB2EB2E0BB2E96
:104AB000912CF50181905F01692D8AE00E94BA1A5C
:104AC000682D8BE00E94BA1A9394F6E39F12F1CFFF
:104AD00060EA88E00E94BA1A80EA0E94AE1A85FF56
:104AE00003C00E940906F8CF6CE080E00E94BA1A69
:104AF0005E9A2FEFE21AF20A80E491E00E94FA0532
:104B0000B12CA12E8CCF8DE391E00E94FA053CCF11
:104B10000E94EF1C39CF2091BA0221110FC02091C1
:104B2000C30221110BC0DF01292F1D922A95E9F73D
:104B30008093BA022091B902222369F3BB24B39473
:104B400001E010E0B6E02B2E312C84E0882E912C71
:104B500092E0E92EF12CCC24CA94DC2C0E941D1A80
:104B6000882309F487C50E94001A282F1092430455
:104B700080914604909147048B30910508F0CAC09B
:104B8000FC01EC5CFF4F0C94143810924E04109210
:104B90004D042E3F29F01093470400934604BAC0F9
:104BA000F0924704E09246041092E702D092E502A8
:104BB000C092E402AFC02093E70210924804622F33
:104BC00084EE92E00E94670B909247048092460424
:104BD000A1C02093E802622F84EE92E00E94670B4E
:104BE00043E050E0509347044093460493C0209321
:104BF000E902622F84EE92E00E94670B65E070E0AC
:104C0000709347046093460485C02093EA02622FA4
:104C100084EE92E00E94670B309247042092460493
:104C200079C02093EB02622F84EE92E00E94670B22
:104C30008091E702811107C088E090E090934704DB
:104C40008093460467C0A7E0B0E0B0934704A09308
:104C5000460460C0E0914804AA24A394AE0EA0923A
:104C60004804F0E0E451FD4F2083622F84EE92E08F
:104C70000E94670B8091E702A8124CC0DDCFE09143
:104C8000EB02F0E0ED5BFE4F649184EE92E02EA724
:104C90000E94670B2EA5422F50E08091E402909174
:104CA000E50299274817590751F02E3F09F478CFAC
:104CB000EAE0F0E0F0934704E09346042BC049E0BB
:104CC00050E05093470440934604E0914804F0E0DC
:104CD000E451FD4F1EC0422F50E06091E5026EA3EB
:104CE0001FA2AEA1BFA14A175B0711F40A9731F4C6
:104CF000809145048F5F809345044BCFB09243046D
:104D00001093470400934604E0914804F0E0E35117
:104D1000FD4F208320914304222399F08091E802E3
:104D20008093490480914B0490914C04009721F4A6
:104D300010924E0410924D04019690934C0480936F
:104D40004B04809149048F5F8F8380914B04909135
:104D50004C049A8789878091450490E09C878B87D3
:104D6000809144048A8310924504222309F47FC46D
:104D70000E9415068091EB02833809F04CC0909197
:104D8000E9028091E302981346C08091EA028436DA
:104D900009F041C08091EC029091ED022091E10276
:104DA0003091E20282179307B1F19093E20280936F
:104DB000E1028091EE028E3E71F58091EF028F3418
:104DC00051F58091F002833531F58091F102843400
:104DD00011F58091F202823699F08737E1F4609103
:104DE000F3024091F40250E0B0E86B9FB00111244F
:104DF00085EF92E00E946C0B81E08093CB020BC0A8
:104E00008091F402811107C08091CB02882319F0B0
:104E1000EE27FF2709948091EB02882309F418C13B
:104E20002091E002222339F09091E902291719F02C
:104E3000933309F01FC48E3309F482C208F081C095
:104E40008D3109F42CC3A0F4823009F468C320F436
:104E5000813009F451C10EC4883109F475C18B3118
:104E600009F008C48091DE028F5F8093DE0202C4E5
:104E7000833209F4CFC208F059C08E3109F423C23D
:104E8000813209F0F7C36091FC027091FD028091BC
:104E9000FE029091FF0228EE33E040E050E00E94D5
:104EA000F537CA01B9010E94B8336093310270939B
:104EB0003202809333029093340260910203709126
:104EC0000303072E000C880B990B0E94B8336B016B
:104ED0007C016091000370910103072E000C880B88
:104EE000990B0E94B8339B01AC010E9417344B010F
:104EF0005C01A7019601C701B6010E9417349B010E
:104F0000AC01C501B4010E94FB340E94FF3620E0D1
:104F100030E048EC52E40E94DE356093D902709391
:104F2000DA028093DB029093DC02A4C3843209F49A
:104F30007DC38A3209F09EC38091EC0280936401A4
:104F400099C3823A09F4DCC208F052C08A3409F4E9
:104F500060C108F046C0813409F08CC38091F00232
:104F60009091F10290933602809335028091F20283
:104F70009091F30290933802809337028091F4026B
:104F80009091F50290933A02809339028091F60253
:104F90009091F70290933C0280933B028091F8023B
:104FA0009091F90290933E0280933D028091FA0223
:104FB0009091FB029093400280933F028091FC020B
:104FC0009091FD0290934202809341028091FE02F3
:104FD0009091FF02909344028093430280911503C5
:104FE0005BC28D3609F491C2893809F458C242C3B4
:104FF000853B09F49CC028F5863A09F486C2883AB4
:1050000009F038C36091EC027091ED028091EE02DC
:105010009091EF020E945036709363016093620199
:105020008091F0029091F102A091F202B091F3020E
:105030008093F4019093F501A093F601B093F701EA
:1050400019C3813F09F4A9C28D3F09F431C212C3CB
:105050008091F002863049F48091E9028093E30266
:105060001092E2021092E10205C3853009F402C3F6
:105070008A3109F4FFC28091F1028093840180910A
:10508000F20287FB882780F98093BE028091EC02B0
:105090008093B9018091E9028093E0028091DF0260
:1050A000811121C08091DE02882391F08091D0028D
:1050B0008A3020F48F5F8093D00219C01092CE0204
:1050C0008091DD028F3798F4880F8093DD020FC046
:1050D0008091CF028A3020F48F5F8093CF0207C087
:1050E0001092CE0204C01092D0021092CF02109201
:1050F000DF021092DE02BEC280915C0284FD0CC011
:105100002091FA023091FB0230934F0220934E021D
:1051100090910A0390934D0286FDACC28091FC02EF
:105120009091FD029093460280934502A3C2809124
:105130005C0285FD9FC28091EC029091ED029093FC
:105140004C0280934B0296C24091F4025091F502BA
:105150006091F6027091F70285EC91E00E942D06B5
:105160004091F8025091F9026091FA027091FB02AD
:1051700089EC91E00E942D06809108038093DF0165
:105180009091090390938301882389F08091FC0218
:105190009091FD02A091FE02B091FF028093CD019B
:1051A0009093CE01A093CF01B093D00118C020E01E
:1051B00030E04AE754E46091FC017091FD01809178
:1051C000FE019091FF010E9417340E9450366093B7
:1051D000CD017093CE018093CF019093D001809147
:1051E000060390910703909382018093810180913F
:1051F0000003909101039093800180937F0180913F
:10520000DF028F5F8093DF021092CF021092D002F4
:1052100031C28091EC029091ED02A091EE02B0912A
:10522000EF028093040290930502A0930602B093CC
:1052300007028091DF01882349F08091F00290916C
:10524000F102A091F202B091F30208C08091D9025C
:105250009091DA02A091DB02B091DC0280932D02E2
:1052600090932E02A0932F02B09330028091FC0203
:105270009091FD029093DE018093DD018091FE020A
:1052800080932C028091F4029091F502A091F60295
:10529000B091F7028093FC019093FD01A093FE0171
:1052A000B093FF018091F8029091F902A091FA0267
:1052B000B091FB028093230290932402A0932502D5
:1052C000B0932602D7C121EE3EE245E652E460915A
:1052D000F4027091F5028091F6029091F7020E941B
:1052E00017340E94503670937A016093790121EE51
:1052F0003EE245E652E46091F0027091F102809145
:10530000F2029091F3020E9417340E94503670937B
:105310007C0160937B0121EE3EE245E652E4609120
:10532000F8027091F9028091FA029091FB020E94BA
:1053300017340E94503670937E0160937D019AC1AC
:105340006091EC027091ED028091EE029091EF027B
:105350000E94503670937801609377016091F0025B
:105360007091F1028091F2029091F3020E94503606
:105370007093760160937501809100039091010311
:1053800090937401809373018091F4029091F502DF
:10539000A091F602B091F70280936F019093700193
:1053A000A0937101B09372018091F8029091F9027B
:1053B000A091FA02B091FB0280936B0190936C0173
:1053C000A0936D01B0936E0180910203909103034D
:1053D00090936A0180936901809104039091050381
:1053E00090936801809367016091FC027091FD02C7
:1053F0008091FE029091FF020E94503670936601E8
:10540000609365018091DF028F5F8093DF021092CD
:10541000CF0230C18091F0029091F1029093360258
:10542000809335028091F2029091F30290933802BA
:10543000809337028091F4029091F50290933A02A2
:10544000809339028091F6029091F70290933C028A
:1054500080933B028091F8029091F90290933E0272
:1054600080933D028091FA029091FB02909340025A
:1054700080933F028091FC029091FD029093420242
:10548000809341028091FE029091FF02909344022A
:10549000809343028091010380930F04EBC08091BD
:1054A000F8029091F9029093610180936001E2C04B
:1054B0008091EC0280935F01873008F0DBC0EDEE55
:1054C000F2E0A5E8B1E082E301900D928A95E1F760
:1054D0001092B701E7EBF1E01CA51E0F92919F7DA2
:1054E000D9F3118286E20E94B80B0E944310E82F84
:1054F000F0E0ED5BFD4F6491812F0E946107BAC01F
:105500008091F30280935E01B5C09091F00280918A
:10551000F102981708F4892F80930E04ABC02091F4
:10552000EC023091ED024091EE025091EF02609159
:10553000F0027091F102E0E4AE2EF2E4BF2EAFE093
:10554000CA2ED12CE12CF12C00E010E08091F20267
:105550009091F3020E941C38B901CA0120E831E59C
:1055600041E050E00E94D33720935A0130935B0111
:1055700040935C0150935D016093AB027093AC0269
:105580008093AD029093AE0281E0232B242B252B38
:1055900009F480E08093D2026DC08091F402909172
:1055A000F502A091F602B091F70280934E0190931C
:1055B0004F01A0935001B09351018091F802909156
:1055C000F902A091FA02B091FB02809352019093EC
:1055D0005301A0935401B09355018091FC02909126
:1055E000FD02A091FE02B091FF02809356019093BC
:1055F0005701A0935801B0935901809100039091F5
:105600000103909349018093480180910403909194
:10561000050390934B0180934A0180910803909178
:10562000090390934D0180934C0124C08091F002B6
:105630009091F10290934101809340018091F20298
:105640009091F30290934301809342018091F40280
:105650009091F50290934501809344018091F60268
:105660009091F702909347018093460103C00E94F6
:105670000E0674CA8091B9028093BA028091B70273
:10568000882309F474C100912B0280916102833058
:1056900008F462C1833029F42091BA013091BB0132
:1056A00011C09BEF980F943048F4E82FF0E0EE0F14
:1056B000FF1FED5CFD4F2081318104C0209143022A
:1056C00030914402A901405253404939584008F0F2
:1056D00043C140910401509105012417350720F47E
:1056E0003093050120930401409102015091030180
:1056F0004217530720F430930301209302018430B2
:1057000029F51091B9018AEF810F823008F495C014
:105710008091FE03811779F01093FE0360E070E042
:105720008AEF93E00E942E0B80910101181303C0B1
:1057300081E08093BB028AEF93E00E94D406813D12
:10574000974008F47AC01093010177C080916602F7
:1057500081111FC0809102019091030140910401C9
:10576000509105016091A3024217530758F4241B7E
:10577000350B841B950B70E00E94AB37C9010E946A
:10578000AB3701C060E0061709F457C060932B02E5
:1057900054C060915C0262FF13C08091F803909145
:1057A000F903009739F0A901481B590B81E0493CE6
:1057B000510508F480E03093F9032093F80311C0F9
:1057C00040910201509103018091040190910501E3
:1057D000480F591F5695479581E04217530708F027
:1057E00080E060FF10C0882321F081E08093BC023C
:1057F00024C08091BC02882319F081E08093BB0211
:105800001092BC021AC08823C1F0C090FA03D09055
:10581000FB03E090FC03F090FD030E94AA19C6165A
:10582000D706E806F90648F481E08093BB0264EFEE
:1058300071E08AEF93E00E942E0B8091BB028823D7
:1058400071F01092BB0280912B028F5F80932B022C
:105850009091A302981720F510922B0221C08091FD
:105860005C0287FF1DC04091F4035091F5036091E5
:10587000F6037091F703411551056105710581F03B
:105880008091D5029091D602A0E0B0E04817590768
:105890006A077B0728F481E08093CD028093BB02E6
:1058A00010912B02011709F457C00E947E0F8091BE
:1058B0005C0287FF0BC08091CD02882339F0809174
:1058C000A302882319F0181709F4BBCF809168024E
:1058D00090916902212F215030F48F704091CD02B8
:1058E000811107C01BC074E0969587957A95E1F702
:1058F000F2CF2091D5023091D602D901A80FB11D67
:10590000CD01A0E0B0E08093F4039093F503A09361
:10591000F603B093F70341111DC00AC0411191CFA6
:105920001092F4031092F5031092F6031092F7030D
:10593000A5E8B1E0EBE4F2E084918D93319681111A
:10594000FBCF80918C01180F10938C0163E088E0ED
:105950000E9461071092CD028091B802811105C0AA
:1059600081E08093B8028093B6021092B7028091D2
:10597000B802882309F442C18091B60281113EC168
:105980001092B8029091DF01992319F081E0809381
:10599000C90280916002882309F43EC4E091BE02EE
:1059A000EF8F8091C002EE2309F417C680FD0DC071
:1059B0001092C50281608093C00210921002109272
:1059C000110210921202109213028091C5028823D4
:1059D00009F438C4F091C502F8A3F11153C483E06F
:1059E00094E00E94D4069C8F8B8F60E070E083E08F
:1059F00094E00E942E0B4B8D5C8DBA0180E090E00C
:105A00000E94B6330E94720769A37AA38BA39CA35A
:105A10006091450270914602072E000C880B990B8D
:105A20000E94B8336B017C0160914E0270914F026D
:105A300080E090E00E94B63320E030E543EC57E48C
:105A40000E94DE35A70196010E941734AB01BC010C
:105A50002AE087E292E00E945306109108018090AC
:105A6000230290902402A0902502B09026020E946A
:105A7000E3089B01AC01C501B4010E94173420E08A
:105A800030E040E752E40E941734AB01BC01212F03
:105A90008FE192E00E94530620914D0280911E02F8
:105AA000082E000C990B422F50E08417950714F430
:105AB00020931E0280916002882309F480C429A1EA
:105AC0003AA14BA15CA1C701B6010E94173420E0A6
:105AD00030E044EB53E40E94DE35AB01BC0186E1CB
